:100000000C942A000C9436070C9436070C9436078F
:100010000C9436070C9436070C9436070C9436076C
:100020000C9436070C9436070C9436070C9436075C
:100030000C9436070C9436070C9436070C9436074C
:100040000C9436070C9436070C9436070C9436073C
:100050000C94360711241FBECFE5D8E0DEBFCDBF1C
:0C0060000E946F000C943400F894FFCF55
:10006C00416C2D53616C616D20416C696B6F6D003F
:10007C00456E672E45736C616D0057652061726526
:10008C002074686500446561662D476C6F76652049
:10009C007465616D004D6F61617A204E617373659B
:1000AC007200416D7220416C69004D6F68616D6525
:1000BC00642047616D616C0041686D65642054611A
:1000CC006D657200414D49542D456E6A6F79203A29
:0200DC002900F9
:1000DE000E9457060E94DE060E94F80680E00E94EB
:1000EE009906893A924008F087C080E00E949906EE
:1000FE008B37924008F480C084E00E9499068D30C0
:10010E00934008F079C084E00E949906843E9240A4
:10011E0008F472C085E00E949906863D924008F070
:10012E006BC085E00E949906823B924008F464C041
:10013E0086E00E949906853E924008F05DC086E0FA
:10014E000E949906863C924008F456C087E00E94B1
:10015E0099068731934008F04FC087E00E949906B8
:10016E008D3F924048F448C06CE670E080E00E94FB
:10017E00C00682E00E940F0680E00E9499068A392E
:10018E009240B8F580E00E9499068B37924088F134
:10019E0084E00E9499068D30934058F584E00E94C9
:1001AE009906843E924028F185E00E949906863D8C
:1001BE009240F8F485E00E949906823B9240C8F086
:1001CE0086E00E949906853E924098F486E00E9451
:1001DE009906863C924068F087E00E949906873126
:1001EE00934038F487E00E9499068D3F924008F0C4
:1001FE00BBCF0E94290772CF80E00E949906883BF0
:10020E00924008F087C080E00E9499068F38924095
:10021E0008F480C084E00E949906803E924008F067
:10022E0079C084E00E9499068C3B924008F472C01B
:10023E0085E00E949906833B924008F06BC085E0F2
:10024E000E9499068439924008F464C086E00E94A8
:10025E0099068B3D924008F05DC086E00E9499069B
:10026E00873B924008F456C087E00E9499068F3E65
:10027E00924008F04FC087E00E9499068B3C924056
:10028E0048F448C06CE770E080E00E94C00682E04F
:10029E000E940F0680E00E949906883B9240B8F5B6
:1002AE0080E00E9499068F38924088F184E00E9487
:1002BE009906803E924058F584E00E9499068C3B48
:1002CE00924028F185E00E949906833B9240F8F413
:1002DE0085E00E94990684399240C8F086E00E941B
:1002EE0099068B3D924098F486E00E949906873BD2
:1002FE00924068F087E00E9499068F3E924038F453
:10030E0087E00E9499068B3C924008F0BBCF0E947A
:10031E002907E4CE80E00E949906893A924008F0BF
:10032E008FC080E00E9499068038924008F488C001
:10033E0084E00E949906833B924008F081C084E0DD
:10034E000E9499068439924008F47AC085E00E9492
:10035E009906823C924008F073C085E00E9499068F
:10036E008439924008F46CC086E00E949906863D5E
:10037E00924008F065C086E00E9499068C3B924040
:10038E0008F45EC087E00E949906893F924008F00B
:10039E0057C087E00E9499068A3D924088F450C06B
:1003AE0066E870E080E00E94C00680EC0E940F06B6
:1003BE0061E970E080E00E94C00682E00E940F06B4
:1003CE0080E00E949906893A9240B8F580E00E943A
:1003DE0099068B37924088F184E00E949906833B00
:1003EE00924058F584E00E9499068439924028F193
:1003FE0085E00E949906823C9240F8F485E00E94C6
:10040E00990684399240C8F086E00E949906863D8E
:10041E00924098F486E00E949906823B924068F0E2
:10042E0087E00E949906893F924038F487E00E9447
:10043E009906853D924008F0B3CF0E9429074ECE13
:10044E0080E00E9499068330934008F087C080E0D8
:10045E000E949906853D924008F480C084E00E9477
:10046E0099068330934008F079C084E00E94990683
:10047E00843E924008F472C085E00E9499068B3D3E
:10048E00924008F06BC085E00E9499068C3B92402A
:10049E0008F464C086E00E949906893F924008F0F5
:1004AE005DC086E00E949906803D924008F456C0D9
:1004BE0087E00E9499068C31934008F04FC087E088
:1004CE000E949906883F924048F448C061EA70E065
:1004DE0080E00E94C00682E00E940F0680E00E942B
:1004EE00990683309340B8F580E00E949906853DC9
:1004FE00924088F184E00E9499068330934058F52B
:10050E0084E00E949906843E924028F185E00E9484
:10051E0099068B3D9240F8F485E00E9499068C3B3B
:10052E009240C8F086E00E949906893F924098F466
:10053E0086E00E949906803D924068F087E00E9416
:10054E0099068C31934038F487E00E949906883FD3
:10055E00924008F0BBCF0E942907C0CD80E00E94D8
:10056E0099068F39924008F087C080E00E94990664
:10057E008B37924008F480C084E00E949906843F35
:10058E00924008F079C084E00E949906803D924026
:10059E0008F472C085E00E9499068B38924008F0EC
:1005AE006BC085E00E9499068C36924008F464C0B8
:1005BE0086E00E9499068B38924008F05DC086E076
:1005CE000E9499068C36924008F456C087E00E942D
:1005DE0099068D3B924008F04FC087E00E94990625
:1005EE008E39924048F448C06EEA70E080E00E9476
:1005FE00C00682E00E940F0680E00E9499068F39A5
:10060E009240B8F580E00E9499068B37924088F1AF
:10061E0084E00E949906843F924058F584E00E943F
:10062E009906803D924028F185E00E9499068B380C
:10063E009240F8F485E00E9499068C369240C8F0FC
:10064E0086E00E9499068B38924098F486E00E94CC
:10065E0099068C36924068F087E00E9499068D3B91
:10066E00924038F487E00E9499068E39924008F045
:10067E00BBCF0E94290732CD80E00E9499068B3DA8
:10068E00924008F087C080E00E9499068C3B924011
:10069E0008F480C084E00E949906893A924008F0DE
:1006AE0079C084E00E9499068F38924008F472C097
:1006BE0085E00E9499068B38924008F06BC085E069
:1006CE000E9499068C36924008F464C086E00E941F
:1006DE0099068B38924008F05DC086E00E9499061C
:1006EE008C36924008F456C087E00E9499068D3BE6
:1006FE00924008F04FC087E00E9499068E399240D2
:10070E0048F448C066EB70E080E00E94C00682E0CC
:10071E000E940F0680E00E9499068B3D9240B8F52C
:10072E0080E00E9499068C3B924088F184E00E9402
:10073E009906893A924058F584E00E9499068F38BE
:10074E00924028F185E00E9499068B389240F8F489
:10075E0085E00E9499068C369240C8F086E00E9491
:10076E0099068B38924098F486E00E9499068C3652
:10077E00924068F087E00E9499068D3B924038F4D3
:10078E0087E00E9499068E39924008F0BBCF0E94F6
:10079E002907A4CC80E00E949906873C924008F07D
:1007AE0087C080E00E9499068439924008F480C088
:1007BE0084E00E949906893A924008F079C084E05C
:1007CE000E9499068F38924008F472C085E00E940C
:1007DE0099068B38924008F06BC085E00E9499060E
:1007EE008C36924008F464C086E00E949906853EDD
:1007FE00924008F05DC086E00E949906863C9240C9
:10080E0008F456C087E00E9499068D30934008F098
:10081E004FC087E00E949906893E924048F448C036
:10082E0064EC70E080E00E94C00682E00E940F0639
:10083E0080E00E949906873C9240B8F580E00E94C5
:10084E0099068439924088F184E00E949906893A8B
:10085E00924058F584E00E9499068F38924028F114
:10086E0085E00E9499068B389240F8F485E00E944C
:10087E0099068C369240C8F086E00E949906853E15
:10088E00924098F486E00E949906863C924068F069
:10089E0087E00E9499068D30934038F487E00E94DD
:1008AE009906893E924008F0BBCF0E94290716CCCC
:1008BE0080E00E9499068539924008F00FCC80E0C6
:1008CE000E9499068637924008F408CC84E00E9474
:1008DE009906843A924008F001CC84E00E94990671
:1008EE008A38924008F4FACB85E00E9499068C3C37
:1008FE00924008F0F3CB85E00E949906823B92402D
:10090E0008F4ECCB86E00E949906853E924008F0F2
:10091E00E5CB86E00E949906863C924008F4DECB39
:10092E0087E00E9499068731934008F0D7CB87E085
:10093E000E9499068E3E924048F4D0CB60ED70E056
:10094E0080E00E94C00682E00E940F0680E00E94B6
:10095E0099068F399240B8F580E00E949906863745
:10096E00924088F184E00E949906893A924058F5A7
:10097E0084E00E9499068637924028F185E00E9415
:10098E0099068B3D9240F8F485E00E9499068C3BC7
:10099E009240C8F086E00E949906853E924098F4F7
:1009AE0086E00E949906863C924068F087E00E949D
:1009BE0099068731934038F487E00E9499068E3E5F
:0C09CE00924008F0BBCF0E94290788CBA4
:1009DA00813001F130F08230B1F1833009F44CC03A
:1009EA000895413059F42AB381E090E002C0880F9B
:1009FA00991F6A95E2F7822B8ABB08952AB381E090
:100A0A0090E002C0880F991F6A95E2F780958223C9
:100A1A008ABB0895413059F427B381E090E002C0BF
:100A2A00880F991F6A95E2F7822B87BB089527B32F
:100A3A0081E090E002C0880F991F6A95E2F78095DD
:100A4A00822387BB0895413059F424B381E090E0B2
:100A5A0002C0880F991F6A95E2F7822B84BB08951A
:100A6A0024B381E090E002C0880F991F6A95E2F7EB
:100A7A008095822384BB0895413059F421B381E0E3
:100A8A0090E002C0880F991F6A95E2F7822B81BB1A
:100A9A00089521B381E090E002C0880F991F6A95FA
:0A0AAA00E2F78095822381BB0895D6
:100AB400813001F130F08230B1F1833009F44CC05F
:100AC4000895423059F42BB381E090E002C0880FBE
:100AD400991F6A95E2F7822B8BBB08952BB381E0B3
:100AE40090E002C0880F991F6A95E2F780958223EF
:100AF4008BBB0895423059F428B381E090E002C0E2
:100B0400880F991F6A95E2F7822B88BB089528B352
:100B140081E090E002C0880F991F6A95E2F7809502
:100B2400822388BB0895423059F425B381E090E0D4
:100B340002C0880F991F6A95E2F7822B85BB08953E
:100B440025B381E090E002C0880F991F6A95E2F70F
:100B54008095822385BB0895423059F422B381E005
:100B640090E002C0880F991F6A95E2F7822B82BB3E
:100B7400089522B381E090E002C0880F991F6A951E
:0A0B8400E2F78095822382BB0895FA
:100B8E00CF93C82F42E061E081E00E945A0543E016
:100B9E0062E081E00E945A0588B39C2F907F8F708F
:100BAE00892B88BB42E063E081E00E945A058FE901
:100BBE009FE00197F1F700C0000043E063E081E0A1
:100BCE000E945A058FE19EE40197F1F700C00000E4
:100BDE0020E1C29FC001112498B39F70892B88BB5E
:100BEE0042E063E081E00E945A058FE99FE00197A1
:100BFE00F1F700C0000043E063E081E00E945A0577
:100C0E008FE19EE40197F1F700C00000CF910895A7
:100C1E00CF93C82F43E061E081E00E945A0543E084
:100C2E0062E081E00E945A0588B39C2F907F8F70FE
:100C3E00892B88BB42E063E081E00E945A058FE970
:100C4E009FE00197F1F700C0000043E063E081E010
:100C5E000E945A058FE19EE40197F1F700C0000053
:100C6E0020E1C29FC001112498B39F70892B88BBCD
:100C7E0042E063E081E00E945A058FE99FE0019710
:100C8E00F1F700C0000043E063E081E00E945A05E6
:100C9E008FE19EE40197F1F700C00000CF91089517
:100CAE0041E063E081E00E94ED0441E062E081E01A
:100CBE000E94ED0441E061E081E00E94ED0441E01C
:100CCE0064E081E00E94ED0441E065E081E00E9475
:100CDE00ED0441E066E081E00E94ED0441E067E052
:100CEE0081E00E94ED042FEF83ED90E321508040D0
:100CFE009040E1F700C0000083E30E940F0682E3FC
:100D0E000E940F0688E20E940F068CE00E940F06DA
:100D1E0081E00E940F0682E00E940F0686E00E948C
:040D2E000F0608950F
:100D32008530A9F028F4882341F0843059F01EC090
:100D4200863091F08730A9F019C080E090E00E94CF
:100D52001107089584E090E00E941107089585E04C
:100D620090E00E941107089586E090E00E9411072A
:0E0D7200089587E090E00E941107089508950B
:100D8000CF92DF92EF92CF936B01E82EC0E003C0C9
:100D90000E94C705CF5F8C2F0C2E000C990BAA0B5D
:100DA0008C0D9D1DAE1DFC018491A7FD80818111DC
:0C0DB000EFCFCF91EF90DF90CF9008952F
:100DBC0040E060E080E00E94ED0440E064E080E010
:100DCC000E94ED0440E065E080E00E94ED0440E00C
:100DDC0066E080E00E94ED0440E067E080E00E9465
:040DEC00ED04089575
:100DF00087B1806487B987B18F7787B987B18F7DD5
:100E000087B986B1816086B986B1826086B986B1BC
:100E1000846086B986B1806886B986B1886086B9F3
:020E2000089533
:100E22009AB321E030E0082E02C0220F331F0A9449
:100E3200E2F7209529232ABB97B1907E892B87B9A7
:100E420086B1806486B9349BFECF84B195B1089592
:100E520081E00E940F068CE00E940F0682E00E9451
:0A0E62000F0686E00E940F060895B7
:040E6C000C940000E2
:00000001FF
